{
  "contractName": "ReportTickets",
  "abi": [
    {
      "inputs": [],
      "stateMutability": "nonpayable",
      "type": "constructor"
    },
    {
      "anonymous": false,
      "inputs": [
        {
          "indexed": true,
          "internalType": "address",
          "name": "owner",
          "type": "address"
        },
        {
          "indexed": true,
          "internalType": "address",
          "name": "approved",
          "type": "address"
        },
        {
          "indexed": true,
          "internalType": "uint256",
          "name": "tokenId",
          "type": "uint256"
        }
      ],
      "name": "Approval",
      "type": "event"
    },
    {
      "anonymous": false,
      "inputs": [
        {
          "indexed": true,
          "internalType": "address",
          "name": "owner",
          "type": "address"
        },
        {
          "indexed": true,
          "internalType": "address",
          "name": "operator",
          "type": "address"
        },
        {
          "indexed": false,
          "internalType": "bool",
          "name": "approved",
          "type": "bool"
        }
      ],
      "name": "ApprovalForAll",
      "type": "event"
    },
    {
      "anonymous": false,
      "inputs": [
        {
          "indexed": true,
          "internalType": "address",
          "name": "previousOwner",
          "type": "address"
        },
        {
          "indexed": true,
          "internalType": "address",
          "name": "newOwner",
          "type": "address"
        }
      ],
      "name": "OwnershipTransferred",
      "type": "event"
    },
    {
      "anonymous": false,
      "inputs": [
        {
          "indexed": true,
          "internalType": "address",
          "name": "from",
          "type": "address"
        },
        {
          "indexed": true,
          "internalType": "address",
          "name": "to",
          "type": "address"
        },
        {
          "indexed": true,
          "internalType": "uint256",
          "name": "tokenId",
          "type": "uint256"
        }
      ],
      "name": "Transfer",
      "type": "event"
    },
    {
      "inputs": [],
      "name": "MAX_SUPPLY",
      "outputs": [
        {
          "internalType": "uint16",
          "name": "",
          "type": "uint16"
        }
      ],
      "stateMutability": "view",
      "type": "function",
      "constant": true
    },
    {
      "inputs": [
        {
          "internalType": "address",
          "name": "to",
          "type": "address"
        },
        {
          "internalType": "uint256",
          "name": "tokenId",
          "type": "uint256"
        }
      ],
      "name": "approve",
      "outputs": [],
      "stateMutability": "nonpayable",
      "type": "function"
    },
    {
      "inputs": [
        {
          "internalType": "address",
          "name": "owner",
          "type": "address"
        }
      ],
      "name": "balanceOf",
      "outputs": [
        {
          "internalType": "uint256",
          "name": "",
          "type": "uint256"
        }
      ],
      "stateMutability": "view",
      "type": "function",
      "constant": true
    },
    {
      "inputs": [
        {
          "internalType": "uint256",
          "name": "",
          "type": "uint256"
        }
      ],
      "name": "color",
      "outputs": [
        {
          "internalType": "bytes3",
          "name": "",
          "type": "bytes3"
        }
      ],
      "stateMutability": "view",
      "type": "function",
      "constant": true
    },
    {
      "inputs": [],
      "name": "generalTicketPrice",
      "outputs": [
        {
          "internalType": "uint256",
          "name": "",
          "type": "uint256"
        }
      ],
      "stateMutability": "view",
      "type": "function",
      "constant": true
    },
    {
      "inputs": [
        {
          "internalType": "uint256",
          "name": "tokenId",
          "type": "uint256"
        }
      ],
      "name": "getApproved",
      "outputs": [
        {
          "internalType": "address",
          "name": "",
          "type": "address"
        }
      ],
      "stateMutability": "view",
      "type": "function",
      "constant": true
    },
    {
      "inputs": [
        {
          "internalType": "address",
          "name": "owner",
          "type": "address"
        },
        {
          "internalType": "address",
          "name": "operator",
          "type": "address"
        }
      ],
      "name": "isApprovedForAll",
      "outputs": [
        {
          "internalType": "bool",
          "name": "",
          "type": "bool"
        }
      ],
      "stateMutability": "view",
      "type": "function",
      "constant": true
    },
    {
      "inputs": [
        {
          "internalType": "uint256",
          "name": "",
          "type": "uint256"
        }
      ],
      "name": "milestoneTicketHolders",
      "outputs": [
        {
          "internalType": "bool",
          "name": "",
          "type": "bool"
        }
      ],
      "stateMutability": "view",
      "type": "function",
      "constant": true
    },
    {
      "inputs": [],
      "name": "milestoneTicketPrice",
      "outputs": [
        {
          "internalType": "uint256",
          "name": "",
          "type": "uint256"
        }
      ],
      "stateMutability": "view",
      "type": "function",
      "constant": true
    },
    {
      "inputs": [
        {
          "internalType": "uint256",
          "name": "",
          "type": "uint256"
        }
      ],
      "name": "mintingRequests",
      "outputs": [
        {
          "internalType": "address",
          "name": "minter",
          "type": "address"
        },
        {
          "internalType": "bool",
          "name": "approved",
          "type": "bool"
        },
        {
          "internalType": "string",
          "name": "status",
          "type": "string"
        }
      ],
      "stateMutability": "view",
      "type": "function",
      "constant": true
    },
    {
      "inputs": [],
      "name": "name",
      "outputs": [
        {
          "internalType": "string",
          "name": "",
          "type": "string"
        }
      ],
      "stateMutability": "view",
      "type": "function",
      "constant": true
    },
    {
      "inputs": [],
      "name": "owner",
      "outputs": [
        {
          "internalType": "address",
          "name": "",
          "type": "address"
        }
      ],
      "stateMutability": "view",
      "type": "function",
      "constant": true
    },
    {
      "inputs": [
        {
          "internalType": "uint256",
          "name": "tokenId",
          "type": "uint256"
        }
      ],
      "name": "ownerOf",
      "outputs": [
        {
          "internalType": "address",
          "name": "",
          "type": "address"
        }
      ],
      "stateMutability": "view",
      "type": "function",
      "constant": true
    },
    {
      "inputs": [],
      "name": "renounceOwnership",
      "outputs": [],
      "stateMutability": "nonpayable",
      "type": "function"
    },
    {
      "inputs": [
        {
          "internalType": "address",
          "name": "from",
          "type": "address"
        },
        {
          "internalType": "address",
          "name": "to",
          "type": "address"
        },
        {
          "internalType": "uint256",
          "name": "tokenId",
          "type": "uint256"
        }
      ],
      "name": "safeTransferFrom",
      "outputs": [],
      "stateMutability": "nonpayable",
      "type": "function"
    },
    {
      "inputs": [
        {
          "internalType": "address",
          "name": "from",
          "type": "address"
        },
        {
          "internalType": "address",
          "name": "to",
          "type": "address"
        },
        {
          "internalType": "uint256",
          "name": "tokenId",
          "type": "uint256"
        },
        {
          "internalType": "bytes",
          "name": "data",
          "type": "bytes"
        }
      ],
      "name": "safeTransferFrom",
      "outputs": [],
      "stateMutability": "nonpayable",
      "type": "function"
    },
    {
      "inputs": [
        {
          "internalType": "address",
          "name": "operator",
          "type": "address"
        },
        {
          "internalType": "bool",
          "name": "approved",
          "type": "bool"
        }
      ],
      "name": "setApprovalForAll",
      "outputs": [],
      "stateMutability": "nonpayable",
      "type": "function"
    },
    {
      "inputs": [
        {
          "internalType": "bytes4",
          "name": "interfaceId",
          "type": "bytes4"
        }
      ],
      "name": "supportsInterface",
      "outputs": [
        {
          "internalType": "bool",
          "name": "",
          "type": "bool"
        }
      ],
      "stateMutability": "view",
      "type": "function",
      "constant": true
    },
    {
      "inputs": [],
      "name": "symbol",
      "outputs": [
        {
          "internalType": "string",
          "name": "",
          "type": "string"
        }
      ],
      "stateMutability": "view",
      "type": "function",
      "constant": true
    },
    {
      "inputs": [
        {
          "internalType": "uint256",
          "name": "index",
          "type": "uint256"
        }
      ],
      "name": "tokenByIndex",
      "outputs": [
        {
          "internalType": "uint256",
          "name": "",
          "type": "uint256"
        }
      ],
      "stateMutability": "view",
      "type": "function",
      "constant": true
    },
    {
      "inputs": [
        {
          "internalType": "address",
          "name": "owner",
          "type": "address"
        },
        {
          "internalType": "uint256",
          "name": "index",
          "type": "uint256"
        }
      ],
      "name": "tokenOfOwnerByIndex",
      "outputs": [
        {
          "internalType": "uint256",
          "name": "",
          "type": "uint256"
        }
      ],
      "stateMutability": "view",
      "type": "function",
      "constant": true
    },
    {
      "inputs": [
        {
          "internalType": "address",
          "name": "from",
          "type": "address"
        },
        {
          "internalType": "address",
          "name": "to",
          "type": "address"
        },
        {
          "internalType": "uint256",
          "name": "tokenId",
          "type": "uint256"
        }
      ],
      "name": "transferFrom",
      "outputs": [],
      "stateMutability": "nonpayable",
      "type": "function"
    },
    {
      "inputs": [
        {
          "internalType": "address",
          "name": "newOwner",
          "type": "address"
        }
      ],
      "name": "transferOwnership",
      "outputs": [],
      "stateMutability": "nonpayable",
      "type": "function"
    },
    {
      "inputs": [],
      "name": "totalSupply",
      "outputs": [
        {
          "internalType": "uint256",
          "name": "",
          "type": "uint256"
        }
      ],
      "stateMutability": "view",
      "type": "function",
      "constant": true
    },
    {
      "inputs": [
        {
          "internalType": "address",
          "name": "_wallet",
          "type": "address"
        }
      ],
      "name": "walletOfOwner",
      "outputs": [
        {
          "internalType": "uint256[]",
          "name": "",
          "type": "uint256[]"
        }
      ],
      "stateMutability": "view",
      "type": "function",
      "constant": true
    },
    {
      "inputs": [],
      "name": "contractURI",
      "outputs": [
        {
          "internalType": "string",
          "name": "",
          "type": "string"
        }
      ],
      "stateMutability": "pure",
      "type": "function",
      "constant": true
    },
    {
      "inputs": [],
      "name": "mintNFT",
      "outputs": [
        {
          "internalType": "uint256",
          "name": "",
          "type": "uint256"
        }
      ],
      "stateMutability": "payable",
      "type": "function",
      "payable": true
    },
    {
      "inputs": [
        {
          "internalType": "uint256",
          "name": "tokenId",
          "type": "uint256"
        }
      ],
      "name": "approveMinting",
      "outputs": [],
      "stateMutability": "payable",
      "type": "function",
      "payable": true
    },
    {
      "inputs": [
        {
          "internalType": "uint256",
          "name": "tokenId",
          "type": "uint256"
        }
      ],
      "name": "rejectMinting",
      "outputs": [],
      "stateMutability": "payable",
      "type": "function",
      "payable": true
    },
    {
      "inputs": [
        {
          "internalType": "uint256",
          "name": "id",
          "type": "uint256"
        }
      ],
      "name": "tokenURI",
      "outputs": [
        {
          "internalType": "string",
          "name": "",
          "type": "string"
        }
      ],
      "stateMutability": "view",
      "type": "function",
      "constant": true
    }
  ],
  "bytecode": "0x60806040526000600c60006101000a81548161ffff021916908361ffff160217905550612710600c60166101000a81548161ffff021916908361ffff1602179055503480156200004e57600080fd5b506040518060400160405280600d81526020017f5265706f72745469636b657473000000000000000000000000000000000000008152506040518060400160405280600481526020017f52505458000000000000000000000000000000000000000000000000000000008152508160009081620000cc91906200049b565b508060019081620000de91906200049b565b50505062000101620000f56200015360201b60201c565b6200015b60201b60201c565b6000600b6000018190555033600c60026101000a81548173ffffffffffffffffffffffffffffffffffffffff021916908373ffffffffffffffffffffffffffffffffffffffff16021790555062000582565b600033905090565b6000600a60009054906101000a900473ffffffffffffffffffffffffffffffffffffffff16905081600a60006101000a81548173ffffffffffffffffffffffffffffffffffffffff021916908373ffffffffffffffffffffffffffffffffffffffff1602179055508173ffffffffffffffffffffffffffffffffffffffff168173ffffffffffffffffffffffffffffffffffffffff167f8be0079c531659141344cd1fd0a4f28419497f9722a3daafe3b4186f6b6457e060405160405180910390a35050565b600081519050919050565b7f4e487b7100000000000000000000000000000000000000000000000000000000600052604160045260246000fd5b7f4e487b7100000000000000000000000000000000000000000000000000000000600052602260045260246000fd5b60006002820490506001821680620002a357607f821691505b602082108103620002b957620002b86200025b565b5b50919050565b60008190508160005260206000209050919050565b60006020601f8301049050919050565b600082821b905092915050565b600060088302620003237fffffffffffffffffffffffffffffffffffffffffffffffffffffffffffffffff82620002e4565b6200032f8683620002e4565b95508019841693508086168417925050509392505050565b6000819050919050565b6000819050919050565b60006200037c62000376620003708462000347565b62000351565b62000347565b9050919050565b6000819050919050565b62000398836200035b565b620003b0620003a78262000383565b848454620002f1565b825550505050565b600090565b620003c7620003b8565b620003d48184846200038d565b505050565b5b81811015620003fc57620003f0600082620003bd565b600181019050620003da565b5050565b601f8211156200044b576200041581620002bf565b6200042084620002d4565b8101602085101562000430578190505b620004486200043f85620002d4565b830182620003d9565b50505b505050565b600082821c905092915050565b6000620004706000198460080262000450565b1980831691505092915050565b60006200048b83836200045d565b9150826002028217905092915050565b620004a68262000221565b67ffffffffffffffff811115620004c257620004c16200022c565b5b620004ce82546200028a565b620004db82828562000400565b600060209050601f831160018114620005135760008415620004fe578287015190505b6200050a85826200047d565b8655506200057a565b601f1984166200052386620002bf565b60005b828110156200054d5784890151825560018201915060208501945060208101905062000526565b868310156200056d578489015162000569601f8916826200045d565b8355505b6001600288020188555050505b505050505050565b614dfd80620005926000396000f3fe6080604052600436106101cd5760003560e01c8063715018a6116100f7578063b88d4fde11610095578063e8a3d48511610064578063e8a3d485146106be578063e985e9c5146106e9578063ec6ea53c14610726578063f2fde38b14610742576101cd565b8063b88d4fde146105ff578063c3b7725214610628578063c87b56dd14610644578063d4e28c9c14610681576101cd565b806398b1e016116100d157806398b1e01614610541578063a22cb4651461056c578063a78b2de014610595578063ad3b2af2146105d4576101cd565b8063715018a6146104d45780638da5cb5b146104eb57806395d89b4114610516576101cd565b80632f745c591161016f5780634f6ccce71161013e5780634f6ccce7146103e05780636352211e1461041d5780636b23eb8a1461045a57806370a0823114610497576101cd565b80632f745c591461031257806332cb6b0c1461034f57806342842e0e1461037a578063438b6300146103a3576101cd565b8063095ea7b3116101ab578063095ea7b31461027757806314f710fe146102a057806318160ddd146102be57806323b872dd146102e9576101cd565b806301ffc9a7146101d257806306fdde031461020f578063081812fc1461023a575b600080fd5b3480156101de57600080fd5b506101f960048036038101906101f4919061317e565b61076b565b60405161020691906131c6565b60405180910390f35b34801561021b57600080fd5b506102246107e5565b6040516102319190613271565b60405180910390f35b34801561024657600080fd5b50610261600480360381019061025c91906132c9565b610877565b60405161026e9190613337565b60405180910390f35b34801561028357600080fd5b5061029e6004803603810190610299919061337e565b6108bd565b005b6102a86109d4565b6040516102b591906133cd565b60405180910390f35b3480156102ca57600080fd5b506102d3610c9e565b6040516102e091906133cd565b60405180910390f35b3480156102f557600080fd5b50610310600480360381019061030b91906133e8565b610cba565b005b34801561031e57600080fd5b506103396004803603810190610334919061337e565b610d1a565b60405161034691906133cd565b60405180910390f35b34801561035b57600080fd5b50610364610dbf565b6040516103719190613458565b60405180910390f35b34801561038657600080fd5b506103a1600480360381019061039c91906133e8565b610dd3565b005b3480156103af57600080fd5b506103ca60048036038101906103c59190613473565b610df3565b6040516103d7919061355e565b60405180910390f35b3480156103ec57600080fd5b50610407600480360381019061040291906132c9565b610ea1565b60405161041491906133cd565b60405180910390f35b34801561042957600080fd5b50610444600480360381019061043f91906132c9565b610f12565b6040516104519190613337565b60405180910390f35b34801561046657600080fd5b50610481600480360381019061047c91906132c9565b610f98565b60405161048e91906131c6565b60405180910390f35b3480156104a357600080fd5b506104be60048036038101906104b99190613473565b610fb8565b6040516104cb91906133cd565b60405180910390f35b3480156104e057600080fd5b506104e961106f565b005b3480156104f757600080fd5b50610500611083565b60405161050d9190613337565b60405180910390f35b34801561052257600080fd5b5061052b6110ad565b6040516105389190613271565b60405180910390f35b34801561054d57600080fd5b5061055661113f565b60405161056391906133cd565b60405180910390f35b34801561057857600080fd5b50610593600480360381019061058e91906135ac565b61114a565b005b3480156105a157600080fd5b506105bc60048036038101906105b791906132c9565b611160565b6040516105cb939291906135ec565b60405180910390f35b3480156105e057600080fd5b506105e961123f565b6040516105f691906133cd565b60405180910390f35b34801561060b57600080fd5b506106266004803603810190610621919061375f565b61124a565b005b610642600480360381019061063d91906132c9565b6112ac565b005b34801561065057600080fd5b5061066b600480360381019061066691906132c9565b6113f0565b6040516106789190613271565b60405180910390f35b34801561068d57600080fd5b506106a860048036038101906106a391906132c9565b611643565b6040516106b5919061381d565b60405180910390f35b3480156106ca57600080fd5b506106d3611663565b6040516106e09190613271565b60405180910390f35b3480156106f557600080fd5b50610710600480360381019061070b9190613838565b6116d4565b60405161071d91906131c6565b60405180910390f35b610740600480360381019061073b91906132c9565b611768565b005b34801561074e57600080fd5b5061076960048036038101906107649190613473565b6118ac565b005b60007f780e9d63000000000000000000000000000000000000000000000000000000007bffffffffffffffffffffffffffffffffffffffffffffffffffffffff1916827bffffffffffffffffffffffffffffffffffffffffffffffffffffffff191614806107de57506107dd8261192f565b5b9050919050565b6060600080546107f4906138a7565b80601f0160208091040260200160405190810160405280929190818152602001828054610820906138a7565b801561086d5780601f106108425761010080835404028352916020019161086d565b820191906000526020600020905b81548152906001019060200180831161085057829003601f168201915b5050505050905090565b600061088282611a11565b6004600083815260200190815260200160002060009054906101000a900473ffffffffffffffffffffffffffffffffffffffff169050919050565b60006108c882610f12565b90508073ffffffffffffffffffffffffffffffffffffffff168373ffffffffffffffffffffffffffffffffffffffff1603610938576040517f08c379a000000000000000000000000000000000000000000000000000000000815260040161092f9061394a565b60405180910390fd5b8073ffffffffffffffffffffffffffffffffffffffff16610957611a5c565b73ffffffffffffffffffffffffffffffffffffffff161480610986575061098581610980611a5c565b6116d4565b5b6109c5576040517f08c379a00000000000000000000000000000000000000000000000000000000081526004016109bc906139dc565b60405180910390fd5b6109cf8383611a64565b505050565b6000600c60169054906101000a900461ffff1661ffff16600c60009054906101000a900461ffff1661ffff1610610a40576040517f08c379a0000000000000000000000000000000000000000000000000000000008152600401610a3790613a48565b60405180910390fd5b3466470de4df8200001480610a5b575034662386f26fc10000145b610a9a576040517f08c379a0000000000000000000000000000000000000000000000000000000008152600401610a9190613ab4565b60405180910390fd5b610aa4600b611b1d565b6000610ab0600b611b33565b905060405180606001604052803373ffffffffffffffffffffffffffffffffffffffff1681526020016000151581526020016040518060400160405280600781526020017f70656e64696e6700000000000000000000000000000000000000000000000000815250815250600f600083815260200190815260200160002060008201518160000160006101000a81548173ffffffffffffffffffffffffffffffffffffffff021916908373ffffffffffffffffffffffffffffffffffffffff16021790555060208201518160000160146101000a81548160ff0219169083151502179055506040820151816001019081610baa9190613c80565b50905050610bb83382611b41565b66470de4df8200003403610bf3576001600d600083815260200190815260200160002060006101000a81548160ff0219169083151502179055505b600c600081819054906101000a900461ffff1680929190610c1390613d81565b91906101000a81548161ffff021916908361ffff16021790555050600c60029054906101000a900473ffffffffffffffffffffffffffffffffffffffff1673ffffffffffffffffffffffffffffffffffffffff166108fc349081150290604051600060405180830381858888f19350505050158015610c96573d6000803e3d6000fd5b508091505090565b6000600c60009054906101000a900461ffff1661ffff16905090565b610ccb610cc5611a5c565b82611b5f565b610d0a576040517f08c379a0000000000000000000000000000000000000000000000000000000008152600401610d0190613e1d565b60405180910390fd5b610d15838383611bf4565b505050565b6000610d2583610fb8565b8210610d66576040517f08c379a0000000000000000000000000000000000000000000000000000000008152600401610d5d90613eaf565b60405180910390fd5b600660008473ffffffffffffffffffffffffffffffffffffffff1673ffffffffffffffffffffffffffffffffffffffff168152602001908152602001600020600083815260200190815260200160002054905092915050565b600c60169054906101000a900461ffff1681565b610dee8383836040518060200160405280600081525061124a565b505050565b60606000610e0083610fb8565b905060008167ffffffffffffffff811115610e1e57610e1d613634565b5b604051908082528060200260200182016040528015610e4c5781602001602082028036833780820191505090505b50905060005b82811015610e9657610e648582610d1a565b828281518110610e7757610e76613ecf565b5b6020026020010181815250508080610e8e90613efe565b915050610e52565b508092505050919050565b6000610eab611eed565b8210610eec576040517f08c379a0000000000000000000000000000000000000000000000000000000008152600401610ee390613fb8565b60405180910390fd5b60088281548110610f0057610eff613ecf565b5b90600052602060002001549050919050565b600080610f1e83611efa565b9050600073ffffffffffffffffffffffffffffffffffffffff168173ffffffffffffffffffffffffffffffffffffffff1603610f8f576040517f08c379a0000000000000000000000000000000000000000000000000000000008152600401610f8690614024565b60405180910390fd5b80915050919050565b600d6020528060005260406000206000915054906101000a900460ff1681565b60008073ffffffffffffffffffffffffffffffffffffffff168273ffffffffffffffffffffffffffffffffffffffff1603611028576040517f08c379a000000000000000000000000000000000000000000000000000000000815260040161101f906140b6565b60405180910390fd5b600360008373ffffffffffffffffffffffffffffffffffffffff1673ffffffffffffffffffffffffffffffffffffffff168152602001908152602001600020549050919050565b611077611f37565b6110816000611fb5565b565b6000600a60009054906101000a900473ffffffffffffffffffffffffffffffffffffffff16905090565b6060600180546110bc906138a7565b80601f01602080910402602001604051908101604052809291908181526020018280546110e8906138a7565b80156111355780601f1061110a57610100808354040283529160200191611135565b820191906000526020600020905b81548152906001019060200180831161111857829003601f168201915b5050505050905090565b66470de4df82000081565b61115c611155611a5c565b838361207b565b5050565b600f6020528060005260406000206000915090508060000160009054906101000a900473ffffffffffffffffffffffffffffffffffffffff16908060000160149054906101000a900460ff16908060010180546111bc906138a7565b80601f01602080910402602001604051908101604052809291908181526020018280546111e8906138a7565b80156112355780601f1061120a57610100808354040283529160200191611235565b820191906000526020600020905b81548152906001019060200180831161121857829003601f168201915b5050505050905083565b662386f26fc1000081565b61125b611255611a5c565b83611b5f565b61129a576040517f08c379a000000000000000000000000000000000000000000000000000000000815260040161129190613e1d565b60405180910390fd5b6112a6848484846121e7565b50505050565b6112b4611f37565b6000600f600083815260200190815260200160002090508060000160149054906101000a900460ff161561131d576040517f08c379a000000000000000000000000000000000000000000000000000000000815260040161131490614122565b60405180910390fd5b60008160000160146101000a81548160ff0219169083151502179055506040518060400160405280600881526020017f72656a65637465640000000000000000000000000000000000000000000000008152508160010190816113809190613c80565b508060000160009054906101000a900473ffffffffffffffffffffffffffffffffffffffff1673ffffffffffffffffffffffffffffffffffffffff166108fc349081150290604051600060405180830381858888f193505050501580156113eb573d6000803e3d6000fd5b505050565b60606113fb82612243565b61143a576040517f08c379a00000000000000000000000000000000000000000000000000000000081526004016114319061418e565b60405180910390fd5b600061144583612284565b6040516020016114559190614236565b60405160208183030381529060405290506000600d600085815260200190815260200160002060009054906101000a900460ff166114c8576040518060400160405280600681526020017f5245504f525400000000000000000000000000000000000000000000000000008152506114ff565b6040518060400160405280600981526020017f4d494c4553544f4e4500000000000000000000000000000000000000000000008152505b60405160200161150f91906142a4565b604051602081830303815290604052905060008282600d600088815260200190815260200160002060009054906101000a900460ff16611584576040518060400160405280600681526020017f5245504f525400000000000000000000000000000000000000000000000000008152506115bb565b6040518060400160405280600981526020017f4d494c4553544f4e4500000000000000000000000000000000000000000000008152505b6115ed60146115c98a610f12565b73ffffffffffffffffffffffffffffffffffffffff1661235290919063ffffffff16565b60405160200161160094939291906144b4565b604051602081830303815290604052905061161a8161254b565b60405160200161162a919061458b565b6040516020818303038152906040529350505050919050565b600e6020528060005260406000206000915054906101000a900460e81b81565b6060600060405160200161167690614645565b60405160208183030381529060405290506116af8160405160200161169b91906146ac565b60405160208183030381529060405261254b565b6040516020016116bf919061458b565b60405160208183030381529060405291505090565b6000600560008473ffffffffffffffffffffffffffffffffffffffff1673ffffffffffffffffffffffffffffffffffffffff16815260200190815260200160002060008373ffffffffffffffffffffffffffffffffffffffff1673ffffffffffffffffffffffffffffffffffffffff16815260200190815260200160002060009054906101000a900460ff16905092915050565b611770611f37565b6000600f600083815260200190815260200160002090508060000160149054906101000a900460ff16156117d9576040517f08c379a00000000000000000000000000000000000000000000000000000000081526004016117d090614122565b60405180910390fd5b60018160000160146101000a81548160ff0219169083151502179055506040518060400160405280600881526020017f617070726f76656400000000000000000000000000000000000000000000000081525081600101908161183c9190613c80565b508060000160009054906101000a900473ffffffffffffffffffffffffffffffffffffffff1673ffffffffffffffffffffffffffffffffffffffff166108fc349081150290604051600060405180830381858888f193505050501580156118a7573d6000803e3d6000fd5b505050565b6118b4611f37565b600073ffffffffffffffffffffffffffffffffffffffff168173ffffffffffffffffffffffffffffffffffffffff1603611923576040517f08c379a000000000000000000000000000000000000000000000000000000000815260040161191a90614735565b60405180910390fd5b61192c81611fb5565b50565b60007f80ac58cd000000000000000000000000000000000000000000000000000000007bffffffffffffffffffffffffffffffffffffffffffffffffffffffff1916827bffffffffffffffffffffffffffffffffffffffffffffffffffffffff191614806119fa57507f5b5e139f000000000000000000000000000000000000000000000000000000007bffffffffffffffffffffffffffffffffffffffffffffffffffffffff1916827bffffffffffffffffffffffffffffffffffffffffffffffffffffffff1916145b80611a0a5750611a09826126c3565b5b9050919050565b611a1a81612243565b611a59576040517f08c379a0000000000000000000000000000000000000000000000000000000008152600401611a5090614024565b60405180910390fd5b50565b600033905090565b816004600083815260200190815260200160002060006101000a81548173ffffffffffffffffffffffffffffffffffffffff021916908373ffffffffffffffffffffffffffffffffffffffff160217905550808273ffffffffffffffffffffffffffffffffffffffff16611ad783610f12565b73ffffffffffffffffffffffffffffffffffffffff167f8c5be1e5ebec7d5bd14f71427d1e84f3dd0314c0f7b2291e5b200ac8c7c3b92560405160405180910390a45050565b6001816000016000828254019250508190555050565b600081600001549050919050565b611b5b82826040518060200160405280600081525061272d565b5050565b600080611b6b83610f12565b90508073ffffffffffffffffffffffffffffffffffffffff168473ffffffffffffffffffffffffffffffffffffffff161480611bad5750611bac81856116d4565b5b80611beb57508373ffffffffffffffffffffffffffffffffffffffff16611bd384610877565b73ffffffffffffffffffffffffffffffffffffffff16145b91505092915050565b8273ffffffffffffffffffffffffffffffffffffffff16611c1482610f12565b73ffffffffffffffffffffffffffffffffffffffff1614611c6a576040517f08c379a0000000000000000000000000000000000000000000000000000000008152600401611c61906147c7565b60405180910390fd5b600073ffffffffffffffffffffffffffffffffffffffff168273ffffffffffffffffffffffffffffffffffffffff1603611cd9576040517f08c379a0000000000000000000000000000000000000000000000000000000008152600401611cd090614859565b60405180910390fd5b611ce68383836001612788565b8273ffffffffffffffffffffffffffffffffffffffff16611d0682610f12565b73ffffffffffffffffffffffffffffffffffffffff1614611d5c576040517f08c379a0000000000000000000000000000000000000000000000000000000008152600401611d53906147c7565b60405180910390fd5b6004600082815260200190815260200160002060006101000a81549073ffffffffffffffffffffffffffffffffffffffff02191690556001600360008573ffffffffffffffffffffffffffffffffffffffff1673ffffffffffffffffffffffffffffffffffffffff168152602001908152602001600020600082825403925050819055506001600360008473ffffffffffffffffffffffffffffffffffffffff1673ffffffffffffffffffffffffffffffffffffffff16815260200190815260200160002060008282540192505081905550816002600083815260200190815260200160002060006101000a81548173ffffffffffffffffffffffffffffffffffffffff021916908373ffffffffffffffffffffffffffffffffffffffff160217905550808273ffffffffffffffffffffffffffffffffffffffff168473ffffffffffffffffffffffffffffffffffffffff167fddf252ad1be2c89b69c2b068fc378daa952ba7f163c4a11628f55a4df523b3ef60405160405180910390a4611ee883838360016128e6565b505050565b6000600880549050905090565b60006002600083815260200190815260200160002060009054906101000a900473ffffffffffffffffffffffffffffffffffffffff169050919050565b611f3f611a5c565b73ffffffffffffffffffffffffffffffffffffffff16611f5d611083565b73ffffffffffffffffffffffffffffffffffffffff1614611fb3576040517f08c379a0000000000000000000000000000000000000000000000000000000008152600401611faa906148c5565b60405180910390fd5b565b6000600a60009054906101000a900473ffffffffffffffffffffffffffffffffffffffff16905081600a60006101000a81548173ffffffffffffffffffffffffffffffffffffffff021916908373ffffffffffffffffffffffffffffffffffffffff1602179055508173ffffffffffffffffffffffffffffffffffffffff168173ffffffffffffffffffffffffffffffffffffffff167f8be0079c531659141344cd1fd0a4f28419497f9722a3daafe3b4186f6b6457e060405160405180910390a35050565b8173ffffffffffffffffffffffffffffffffffffffff168373ffffffffffffffffffffffffffffffffffffffff16036120e9576040517f08c379a00000000000000000000000000000000000000000000000000000000081526004016120e090614931565b60405180910390fd5b80600560008573ffffffffffffffffffffffffffffffffffffffff1673ffffffffffffffffffffffffffffffffffffffff16815260200190815260200160002060008473ffffffffffffffffffffffffffffffffffffffff1673ffffffffffffffffffffffffffffffffffffffff16815260200190815260200160002060006101000a81548160ff0219169083151502179055508173ffffffffffffffffffffffffffffffffffffffff168373ffffffffffffffffffffffffffffffffffffffff167f17307eab39ab6107e8899845ad3d59bd9653f200f220920489ca2b5937696c31836040516121da91906131c6565b60405180910390a3505050565b6121f2848484611bf4565b6121fe848484846128ec565b61223d576040517f08c379a0000000000000000000000000000000000000000000000000000000008152600401612234906149c3565b60405180910390fd5b50505050565b60008073ffffffffffffffffffffffffffffffffffffffff1661226583611efa565b73ffffffffffffffffffffffffffffffffffffffff1614159050919050565b60606000600161229384612a73565b01905060008167ffffffffffffffff8111156122b2576122b1613634565b5b6040519080825280601f01601f1916602001820160405280156122e45781602001600182028036833780820191505090505b509050600082602001820190505b600115612347578080600190039150507f3031323334353637383961626364656600000000000000000000000000000000600a86061a8153600a858161233b5761233a6149e3565b5b049450600085036122f2575b819350505050919050565b6060600060028360026123659190614a12565b61236f9190614a54565b67ffffffffffffffff81111561238857612387613634565b5b6040519080825280601f01601f1916602001820160405280156123ba5781602001600182028036833780820191505090505b5090507f3000000000000000000000000000000000000000000000000000000000000000816000815181106123f2576123f1613ecf565b5b60200101907effffffffffffffffffffffffffffffffffffffffffffffffffffffffffffff1916908160001a9053507f78000000000000000000000000000000000000000000000000000000000000008160018151811061245657612455613ecf565b5b60200101907effffffffffffffffffffffffffffffffffffffffffffffffffffffffffffff1916908160001a905350600060018460026124969190614a12565b6124a09190614a54565b90505b6001811115612540577f3031323334353637383961626364656600000000000000000000000000000000600f8616601081106124e2576124e1613ecf565b5b1a60f81b8282815181106124f9576124f8613ecf565b5b60200101907effffffffffffffffffffffffffffffffffffffffffffffffffffffffffffff1916908160001a905350600485901c94508061253990614a88565b90506124a3565b508091505092915050565b6060600082510361256d576040518060200160405280600081525090506126be565b6000604051806060016040528060408152602001614d88604091399050600060036002855161259c9190614a54565b6125a69190614ab1565b60046125b29190614a12565b905060006020826125c39190614a54565b67ffffffffffffffff8111156125dc576125db613634565b5b6040519080825280601f01601f19166020018201604052801561260e5781602001600182028036833780820191505090505b509050818152600183018586518101602084015b8183101561267d576003830192508251603f8160121c168501518253600182019150603f81600c1c168501518253600182019150603f8160061c168501518253600182019150603f8116850151825360018201915050612622565b60038951066001811461269757600281146126a7576126b2565b613d3d60f01b60028303526126b2565b603d60f81b60018303525b50505050508093505050505b919050565b60007f01ffc9a7000000000000000000000000000000000000000000000000000000007bffffffffffffffffffffffffffffffffffffffffffffffffffffffff1916827bffffffffffffffffffffffffffffffffffffffffffffffffffffffff1916149050919050565b6127378383612bc6565b61274460008484846128ec565b612783576040517f08c379a000000000000000000000000000000000000000000000000000000000815260040161277a906149c3565b60405180910390fd5b505050565b61279484848484612de3565b60018111156127d8576040517f08c379a00000000000000000000000000000000000000000000000000000000081526004016127cf90614b54565b60405180910390fd5b6000829050600073ffffffffffffffffffffffffffffffffffffffff168573ffffffffffffffffffffffffffffffffffffffff160361281f5761281a81612de9565b61285e565b8373ffffffffffffffffffffffffffffffffffffffff168573ffffffffffffffffffffffffffffffffffffffff161461285d5761285c8582612e32565b5b5b600073ffffffffffffffffffffffffffffffffffffffff168473ffffffffffffffffffffffffffffffffffffffff16036128a05761289b81612f9f565b6128df565b8473ffffffffffffffffffffffffffffffffffffffff168473ffffffffffffffffffffffffffffffffffffffff16146128de576128dd8482613070565b5b5b5050505050565b50505050565b600061290d8473ffffffffffffffffffffffffffffffffffffffff166130ef565b15612a66578373ffffffffffffffffffffffffffffffffffffffff1663150b7a02612936611a5c565b8786866040518563ffffffff1660e01b81526004016129589493929190614bbe565b6020604051808303816000875af192505050801561299457506040513d601f19601f820116820180604052508101906129919190614c1f565b60015b612a16573d80600081146129c4576040519150601f19603f3d011682016040523d82523d6000602084013e6129c9565b606091505b506000815103612a0e576040517f08c379a0000000000000000000000000000000000000000000000000000000008152600401612a05906149c3565b60405180910390fd5b805181602001fd5b63150b7a0260e01b7bffffffffffffffffffffffffffffffffffffffffffffffffffffffff1916817bffffffffffffffffffffffffffffffffffffffffffffffffffffffff191614915050612a6b565b600190505b949350505050565b600080600090507a184f03e93ff9f4daa797ed6e38ed64bf6a1f0100000000000000008310612ad1577a184f03e93ff9f4daa797ed6e38ed64bf6a1f0100000000000000008381612ac757612ac66149e3565b5b0492506040810190505b6d04ee2d6d415b85acef81000000008310612b0e576d04ee2d6d415b85acef81000000008381612b0457612b036149e3565b5b0492506020810190505b662386f26fc100008310612b3d57662386f26fc100008381612b3357612b326149e3565b5b0492506010810190505b6305f5e1008310612b66576305f5e1008381612b5c57612b5b6149e3565b5b0492506008810190505b6127108310612b8b576127108381612b8157612b806149e3565b5b0492506004810190505b60648310612bae5760648381612ba457612ba36149e3565b5b0492506002810190505b600a8310612bbd576001810190505b80915050919050565b600073ffffffffffffffffffffffffffffffffffffffff168273ffffffffffffffffffffffffffffffffffffffff1603612c35576040517f08c379a0000000000000000000000000000000000000000000000000000000008152600401612c2c90614c98565b60405180910390fd5b612c3e81612243565b15612c7e576040517f08c379a0000000000000000000000000000000000000000000000000000000008152600401612c7590614d04565b60405180910390fd5b612c8c600083836001612788565b612c9581612243565b15612cd5576040517f08c379a0000000000000000000000000000000000000000000000000000000008152600401612ccc90614d04565b60405180910390fd5b6001600360008473ffffffffffffffffffffffffffffffffffffffff1673ffffffffffffffffffffffffffffffffffffffff16815260200190815260200160002060008282540192505081905550816002600083815260200190815260200160002060006101000a81548173ffffffffffffffffffffffffffffffffffffffff021916908373ffffffffffffffffffffffffffffffffffffffff160217905550808273ffffffffffffffffffffffffffffffffffffffff16600073ffffffffffffffffffffffffffffffffffffffff167fddf252ad1be2c89b69c2b068fc378daa952ba7f163c4a11628f55a4df523b3ef60405160405180910390a4612ddf6000838360016128e6565b5050565b50505050565b6008805490506009600083815260200190815260200160002081905550600881908060018154018082558091505060019003906000526020600020016000909190919091505550565b60006001612e3f84610fb8565b612e499190614d24565b9050600060076000848152602001908152602001600020549050818114612f2e576000600660008673ffffffffffffffffffffffffffffffffffffffff1673ffffffffffffffffffffffffffffffffffffffff168152602001908152602001600020600084815260200190815260200160002054905080600660008773ffffffffffffffffffffffffffffffffffffffff1673ffffffffffffffffffffffffffffffffffffffff168152602001908152602001600020600084815260200190815260200160002081905550816007600083815260200190815260200160002081905550505b6007600084815260200190815260200160002060009055600660008573ffffffffffffffffffffffffffffffffffffffff1673ffffffffffffffffffffffffffffffffffffffff16815260200190815260200160002060008381526020019081526020016000206000905550505050565b60006001600880549050612fb39190614d24565b9050600060096000848152602001908152602001600020549050600060088381548110612fe357612fe2613ecf565b5b90600052602060002001549050806008838154811061300557613004613ecf565b5b90600052602060002001819055508160096000838152602001908152602001600020819055506009600085815260200190815260200160002060009055600880548061305457613053614d58565b5b6001900381819060005260206000200160009055905550505050565b600061307b83610fb8565b905081600660008573ffffffffffffffffffffffffffffffffffffffff1673ffffffffffffffffffffffffffffffffffffffff168152602001908152602001600020600083815260200190815260200160002081905550806007600084815260200190815260200160002081905550505050565b6000808273ffffffffffffffffffffffffffffffffffffffff163b119050919050565b6000604051905090565b600080fd5b600080fd5b60007fffffffff0000000000000000000000000000000000000000000000000000000082169050919050565b61315b81613126565b811461316657600080fd5b50565b60008135905061317881613152565b92915050565b6000602082840312156131945761319361311c565b5b60006131a284828501613169565b91505092915050565b60008115159050919050565b6131c0816131ab565b82525050565b60006020820190506131db60008301846131b7565b92915050565b600081519050919050565b600082825260208201905092915050565b60005b8381101561321b578082015181840152602081019050613200565b60008484015250505050565b6000601f19601f8301169050919050565b6000613243826131e1565b61324d81856131ec565b935061325d8185602086016131fd565b61326681613227565b840191505092915050565b6000602082019050818103600083015261328b8184613238565b905092915050565b6000819050919050565b6132a681613293565b81146132b157600080fd5b50565b6000813590506132c38161329d565b92915050565b6000602082840312156132df576132de61311c565b5b60006132ed848285016132b4565b91505092915050565b600073ffffffffffffffffffffffffffffffffffffffff82169050919050565b6000613321826132f6565b9050919050565b61333181613316565b82525050565b600060208201905061334c6000830184613328565b92915050565b61335b81613316565b811461336657600080fd5b50565b60008135905061337881613352565b92915050565b600080604083850312156133955761339461311c565b5b60006133a385828601613369565b92505060206133b4858286016132b4565b9150509250929050565b6133c781613293565b82525050565b60006020820190506133e260008301846133be565b92915050565b6000806000606084860312156134015761340061311c565b5b600061340f86828701613369565b935050602061342086828701613369565b9250506040613431868287016132b4565b9150509250925092565b600061ffff82169050919050565b6134528161343b565b82525050565b600060208201905061346d6000830184613449565b92915050565b6000602082840312156134895761348861311c565b5b600061349784828501613369565b91505092915050565b600081519050919050565b600082825260208201905092915050565b6000819050602082019050919050565b6134d581613293565b82525050565b60006134e783836134cc565b60208301905092915050565b6000602082019050919050565b600061350b826134a0565b61351581856134ab565b9350613520836134bc565b8060005b8381101561355157815161353888826134db565b9750613543836134f3565b925050600181019050613524565b5085935050505092915050565b600060208201905081810360008301526135788184613500565b905092915050565b613589816131ab565b811461359457600080fd5b50565b6000813590506135a681613580565b92915050565b600080604083850312156135c3576135c261311c565b5b60006135d185828601613369565b92505060206135e285828601613597565b9150509250929050565b60006060820190506136016000830186613328565b61360e60208301856131b7565b81810360408301526136208184613238565b9050949350505050565b600080fd5b600080fd5b7f4e487b7100000000000000000000000000000000000000000000000000000000600052604160045260246000fd5b61366c82613227565b810181811067ffffffffffffffff8211171561368b5761368a613634565b5b80604052505050565b600061369e613112565b90506136aa8282613663565b919050565b600067ffffffffffffffff8211156136ca576136c9613634565b5b6136d382613227565b9050602081019050919050565b82818337600083830152505050565b60006137026136fd846136af565b613694565b90508281526020810184848401111561371e5761371d61362f565b5b6137298482856136e0565b509392505050565b600082601f8301126137465761374561362a565b5b81356137568482602086016136ef565b91505092915050565b600080600080608085870312156137795761377861311c565b5b600061378787828801613369565b945050602061379887828801613369565b93505060406137a9878288016132b4565b925050606085013567ffffffffffffffff8111156137ca576137c9613121565b5b6137d687828801613731565b91505092959194509250565b60007fffffff000000000000000000000000000000000000000000000000000000000082169050919050565b613817816137e2565b82525050565b6000602082019050613832600083018461380e565b92915050565b6000806040838503121561384f5761384e61311c565b5b600061385d85828601613369565b925050602061386e85828601613369565b9150509250929050565b7f4e487b7100000000000000000000000000000000000000000000000000000000600052602260045260246000fd5b600060028204905060018216806138bf57607f821691505b6020821081036138d2576138d1613878565b5b50919050565b7f4552433732313a20617070726f76616c20746f2063757272656e74206f776e6560008201527f7200000000000000000000000000000000000000000000000000000000000000602082015250565b60006139346021836131ec565b915061393f826138d8565b604082019050919050565b6000602082019050818103600083015261396381613927565b9050919050565b7f4552433732313a20617070726f76652063616c6c6572206973206e6f7420746f60008201527f6b656e206f776e6572206f7220617070726f76656420666f7220616c6c000000602082015250565b60006139c6603d836131ec565b91506139d18261396a565b604082019050919050565b600060208201905081810360008301526139f5816139b9565b9050919050565b7f416c6c207469636b657473206d696e7465640000000000000000000000000000600082015250565b6000613a326012836131ec565b9150613a3d826139fc565b602082019050919050565b60006020820190508181036000830152613a6181613a25565b9050919050565b7f45746865722076616c75652073656e7420696e636f7272656374000000000000600082015250565b6000613a9e601a836131ec565b9150613aa982613a68565b602082019050919050565b60006020820190508181036000830152613acd81613a91565b9050919050565b60008190508160005260206000209050919050565b60006020601f8301049050919050565b600082821b905092915050565b600060088302613b367fffffffffffffffffffffffffffffffffffffffffffffffffffffffffffffffff82613af9565b613b408683613af9565b95508019841693508086168417925050509392505050565b6000819050919050565b6000613b7d613b78613b7384613293565b613b58565b613293565b9050919050565b6000819050919050565b613b9783613b62565b613bab613ba382613b84565b848454613b06565b825550505050565b600090565b613bc0613bb3565b613bcb818484613b8e565b505050565b5b81811015613bef57613be4600082613bb8565b600181019050613bd1565b5050565b601f821115613c3457613c0581613ad4565b613c0e84613ae9565b81016020851015613c1d578190505b613c31613c2985613ae9565b830182613bd0565b50505b505050565b600082821c905092915050565b6000613c5760001984600802613c39565b1980831691505092915050565b6000613c708383613c46565b9150826002028217905092915050565b613c89826131e1565b67ffffffffffffffff811115613ca257613ca1613634565b5b613cac82546138a7565b613cb7828285613bf3565b600060209050601f831160018114613cea5760008415613cd8578287015190505b613ce28582613c64565b865550613d4a565b601f198416613cf886613ad4565b60005b82811015613d2057848901518255600182019150602085019450602081019050613cfb565b86831015613d3d5784890151613d39601f891682613c46565b8355505b6001600288020188555050505b505050505050565b7f4e487b7100000000000000000000000000000000000000000000000000000000600052601160045260246000fd5b6000613d8c8261343b565b915061ffff8203613da057613d9f613d52565b5b600182019050919050565b7f4552433732313a2063616c6c6572206973206e6f7420746f6b656e206f776e6560008201527f72206f7220617070726f76656400000000000000000000000000000000000000602082015250565b6000613e07602d836131ec565b9150613e1282613dab565b604082019050919050565b60006020820190508181036000830152613e3681613dfa565b9050919050565b7f455243373231456e756d657261626c653a206f776e657220696e646578206f7560008201527f74206f6620626f756e6473000000000000000000000000000000000000000000602082015250565b6000613e99602b836131ec565b9150613ea482613e3d565b604082019050919050565b60006020820190508181036000830152613ec881613e8c565b9050919050565b7f4e487b7100000000000000000000000000000000000000000000000000000000600052603260045260246000fd5b6000613f0982613293565b91507fffffffffffffffffffffffffffffffffffffffffffffffffffffffffffffffff8203613f3b57613f3a613d52565b5b600182019050919050565b7f455243373231456e756d657261626c653a20676c6f62616c20696e646578206f60008201527f7574206f6620626f756e64730000000000000000000000000000000000000000602082015250565b6000613fa2602c836131ec565b9150613fad82613f46565b604082019050919050565b60006020820190508181036000830152613fd181613f95565b9050919050565b7f4552433732313a20696e76616c696420746f6b656e2049440000000000000000600082015250565b600061400e6018836131ec565b915061401982613fd8565b602082019050919050565b6000602082019050818103600083015261403d81614001565b9050919050565b7f4552433732313a2061646472657373207a65726f206973206e6f74206120766160008201527f6c6964206f776e65720000000000000000000000000000000000000000000000602082015250565b60006140a06029836131ec565b91506140ab82614044565b604082019050919050565b600060208201905081810360008301526140cf81614093565b9050919050565b7f5265717565737420616c726561647920617070726f7665640000000000000000600082015250565b600061410c6018836131ec565b9150614117826140d6565b602082019050919050565b6000602082019050818103600083015261413b816140ff565b9050919050565b7f6e6f742065786973740000000000000000000000000000000000000000000000600082015250565b60006141786009836131ec565b915061418382614142565b602082019050919050565b600060208201905081810360008301526141a78161416b565b9050919050565b600081905092915050565b7f5469636b65742023000000000000000000000000000000000000000000000000600082015250565b60006141ef6008836141ae565b91506141fa826141b9565b600882019050919050565b6000614210826131e1565b61421a81856141ae565b935061422a8185602086016131fd565b80840191505092915050565b6000614241826141e2565b915061424d8284614205565b915081905092915050565b7f2041636365737300000000000000000000000000000000000000000000000000600082015250565b600061428e6007836141ae565b915061429982614258565b600782019050919050565b60006142b08284614205565b91506142bb82614281565b915081905092915050565b7f7b226e616d65223a220000000000000000000000000000000000000000000000600082015250565b60006142fc6009836141ae565b9150614307826142c6565b600982019050919050565b7f222c226465736372697074696f6e223a22000000000000000000000000000000600082015250565b60006143486011836141ae565b915061435382614312565b601182019050919050565b7f222c000000000000000000000000000000000000000000000000000000000000600082015250565b60006143946002836141ae565b915061439f8261435e565b600282019050919050565b7f2261747472696275746573223a5b7b2274726169745f74797065223a2254696360008201527f6b65742054797065222c202276616c7565223a22000000000000000000000000602082015250565b60006144066034836141ae565b9150614411826143aa565b603482019050919050565b7f227d5d2c00000000000000000000000000000000000000000000000000000000600082015250565b60006144526004836141ae565b915061445d8261441c565b600482019050919050565b7f226f776e6572223a220000000000000000000000000000000000000000000000600082015250565b600061449e6009836141ae565b91506144a982614468565b600982019050919050565b60006144bf826142ef565b91506144cb8287614205565b91506144d68261433b565b91506144e28286614205565b91506144ed82614387565b91506144f8826143f9565b91506145048285614205565b915061450f82614445565b915061451a82614491565b91506145268284614205565b915061453182614387565b915081905095945050505050565b7f646174613a6170706c69636174696f6e2f6a736f6e3b6261736536342c000000600082015250565b6000614575601d836141ae565b91506145808261453f565b601d82019050919050565b600061459682614568565b91506145a28284614205565b915081905092915050565b7f7b226e616d65223a2252505458222c0000000000000000000000000000000000600082015250565b60006145e3600f836141ae565b91506145ee826145ad565b600f82019050919050565b7f226465736372697074696f6e223a225265706f7274205449636b657473227d00600082015250565b600061462f601f836141ae565b915061463a826145f9565b601f82019050919050565b6000614650826145d6565b915061465b82614622565b9150819050919050565b600081519050919050565b600081905092915050565b600061468682614665565b6146908185614670565b93506146a08185602086016131fd565b80840191505092915050565b60006146b8828461467b565b915081905092915050565b7f4f776e61626c653a206e6577206f776e657220697320746865207a65726f206160008201527f6464726573730000000000000000000000000000000000000000000000000000602082015250565b600061471f6026836131ec565b915061472a826146c3565b604082019050919050565b6000602082019050818103600083015261474e81614712565b9050919050565b7f4552433732313a207472616e736665722066726f6d20696e636f72726563742060008201527f6f776e6572000000000000000000000000000000000000000000000000000000602082015250565b60006147b16025836131ec565b91506147bc82614755565b604082019050919050565b600060208201905081810360008301526147e0816147a4565b9050919050565b7f4552433732313a207472616e7366657220746f20746865207a65726f2061646460008201527f7265737300000000000000000000000000000000000000000000000000000000602082015250565b60006148436024836131ec565b915061484e826147e7565b604082019050919050565b6000602082019050818103600083015261487281614836565b9050919050565b7f4f776e61626c653a2063616c6c6572206973206e6f7420746865206f776e6572600082015250565b60006148af6020836131ec565b91506148ba82614879565b602082019050919050565b600060208201905081810360008301526148de816148a2565b9050919050565b7f4552433732313a20617070726f766520746f2063616c6c657200000000000000600082015250565b600061491b6019836131ec565b9150614926826148e5565b602082019050919050565b6000602082019050818103600083015261494a8161490e565b9050919050565b7f4552433732313a207472616e7366657220746f206e6f6e20455243373231526560008201527f63656976657220696d706c656d656e7465720000000000000000000000000000602082015250565b60006149ad6032836131ec565b91506149b882614951565b604082019050919050565b600060208201905081810360008301526149dc816149a0565b9050919050565b7f4e487b7100000000000000000000000000000000000000000000000000000000600052601260045260246000fd5b6000614a1d82613293565b9150614a2883613293565b9250828202614a3681613293565b91508282048414831517614a4d57614a4c613d52565b5b5092915050565b6000614a5f82613293565b9150614a6a83613293565b9250828201905080821115614a8257614a81613d52565b5b92915050565b6000614a9382613293565b915060008203614aa657614aa5613d52565b5b600182039050919050565b6000614abc82613293565b9150614ac783613293565b925082614ad757614ad66149e3565b5b828204905092915050565b7f455243373231456e756d657261626c653a20636f6e736563757469766520747260008201527f616e7366657273206e6f7420737570706f727465640000000000000000000000602082015250565b6000614b3e6035836131ec565b9150614b4982614ae2565b604082019050919050565b60006020820190508181036000830152614b6d81614b31565b9050919050565b600082825260208201905092915050565b6000614b9082614665565b614b9a8185614b74565b9350614baa8185602086016131fd565b614bb381613227565b840191505092915050565b6000608082019050614bd36000830187613328565b614be06020830186613328565b614bed60408301856133be565b8181036060830152614bff8184614b85565b905095945050505050565b600081519050614c1981613152565b92915050565b600060208284031215614c3557614c3461311c565b5b6000614c4384828501614c0a565b91505092915050565b7f4552433732313a206d696e7420746f20746865207a65726f2061646472657373600082015250565b6000614c826020836131ec565b9150614c8d82614c4c565b602082019050919050565b60006020820190508181036000830152614cb181614c75565b9050919050565b7f4552433732313a20746f6b656e20616c7265616479206d696e74656400000000600082015250565b6000614cee601c836131ec565b9150614cf982614cb8565b602082019050919050565b60006020820190508181036000830152614d1d81614ce1565b9050919050565b6000614d2f82613293565b9150614d3a83613293565b9250828203905081811115614d5257614d51613d52565b5b92915050565b7f4e487b7100000000000000000000000000000000000000000000000000000000600052603160045260246000fdfe4142434445464748494a4b4c4d4e4f505152535455565758595a6162636465666768696a6b6c6d6e6f707172737475767778797a303132333435363738392b2fa26469706673582212204427ba91865ebb875cab854bac81250c39fb303db5eefc56348d4aa91ebd7e2464736f6c63430008110033",
  "immutableReferences": {},
  "source": "// SPDX-License-Identifier: MIT\npragma solidity ^0.8.17;\n// import \"truffle/console.sol\";\n\nimport \"@openzeppelin/contracts/token/ERC721/extensions/ERC721Enumerable.sol\";\nimport \"@openzeppelin/contracts/utils/Counters.sol\";\nimport \"@openzeppelin/contracts/access/Ownable.sol\";\nimport \"@openzeppelin/contracts/utils/Strings.sol\";\nimport 'base64-sol/base64.sol';\nimport './HexStrings.sol';\n\ncontract ReportTickets is ERC721Enumerable, Ownable {\n  using Strings for uint256;\n  using HexStrings for uint160;\n  using Counters for Counters.Counter;\n  Counters.Counter private _tokenIds;\n\n  uint16 _myTotalSupply = 0; // max value 65,535\n  address _owner;\n\n  uint16 public MAX_SUPPLY = 10000; // max value 65,535\n  uint256 public constant milestoneTicketPrice = 20000000000000000; // 0.02 ETH\n  uint256 public constant generalTicketPrice = 10000000000000000; // 0.01 ETH\n  // uint256 mintDeadline = block.timestamp + (720 hours);\n\n  mapping (uint256 => bool) public milestoneTicketHolders;\n  mapping (uint256 => bytes3) public color;\n\n  constructor() ERC721(\"ReportTickets\", \"RPTX\") {\n    _tokenIds._value = 0;\n    _owner = msg.sender;\n  }\n\n  struct MintingRequest {\n    address minter;\n    bool approved;\n    string status;\n  }\n\n  mapping(uint256 => MintingRequest) public mintingRequests;\n\n  // TODO: add listener?\n  // event MintingRequestApproved(uint256 indexed tokenId, address indexed minter);\n  // event MintingRequestRejected(uint256 indexed tokenId, address indexed minter);\n\n\n  function totalSupply() view public override returns(uint256) {\n    return _myTotalSupply; // gas optimization (otherwise totalSupply() when mint)\n  }\n\n  /**\n    * @dev Returns the tokens owned by a given wallet. For use mainly on frontend.\n    * @param _wallet The wallet to get the tokens of. NEEDS ENUMERABLE\n  */\n  function walletOfOwner(address _wallet) public view returns (uint256[] memory) {\n    uint256 tokenCount = balanceOf(_wallet);\n    uint256[] memory tokensId = new uint256[](tokenCount);\n    for (uint256 i; i < tokenCount; i++) {\n      tokensId[i] = tokenOfOwnerByIndex(_wallet, i);\n    }\n    return tokensId;\n  }\n\n  function contractURI() public pure returns (string memory) {\n    bytes memory collectionJsonString = bytes(abi.encodePacked(\n      '{\"name\":\"RPTX\",',\n      '\"description\":\"Report TIckets\"}'\n      // '\"image\":\"data:image/svg+xml;base64,',image,'\",'\n      // '\"external_link\":\"\"}'\n    ));\n\n    return string(\n      abi.encodePacked(\n        'data:application/json;base64,',\n        Base64.encode(bytes(abi.encodePacked(collectionJsonString)))\n      )\n    );\n  }\n\n  modifier canMint() {\n    // require(block.timestamp < mintDeadline, 'Minting expired');\n    require(_myTotalSupply < MAX_SUPPLY, 'All tickets minted');\n    require(milestoneTicketPrice == msg.value || generalTicketPrice == msg.value, \"Ether value sent incorrect\");\n    _; // Underscores used in function modifiers return and continue execution of the decorated function\n  }\n\n  function mintNFT() public payable canMint returns (uint256) {\n    _tokenIds.increment();\n    uint256 id = _tokenIds.current();\n\n    // Create a minting request\n    mintingRequests[id] = MintingRequest(msg.sender, false, 'pending');\n\n    // TODO: to only issue NFT after approval and add transfer ownership\n    _safeMint(msg.sender, id);\n\n    if (msg.value == milestoneTicketPrice) {\n      milestoneTicketHolders[id] = true;\n    }\n\n    _myTotalSupply++;\n    payable(_owner).transfer(msg.value);\n\n    // console.log(\"dev output: Your token id is: %d\", id);\n    return (id);\n  }\n\n  function approveMinting(uint256 tokenId) payable external onlyOwner {\n    MintingRequest storage request = mintingRequests[tokenId];\n    require(!request.approved, \"Request already approved\");\n    request.approved = true;\n    request.status = 'approved';\n\n    // TODO: issue payment\n    payable(request.minter).transfer(msg.value);\n  }\n\n  function rejectMinting(uint256 tokenId) payable external onlyOwner {\n    MintingRequest storage request = mintingRequests[tokenId];\n    require(!request.approved, \"Request already approved\");\n    request.approved = false;\n    request.status = 'rejected';\n    // delete mintingRequests[tokenId];\n\n    // Refund the minter's Ether\n    payable(request.minter).transfer(msg.value);\n  }\n\n  function tokenURI(uint256 id) public view override returns (string memory) {\n    require(_exists(id), \"not exist\");\n    string memory name = string(abi.encodePacked('Ticket #', id.toString() ));\n    string memory description = string(abi.encodePacked((milestoneTicketHolders[id] ? \"MILESTONE\" : \"REPORT\"), ' Access'));\n\n    bytes memory tokenJsonString = bytes(abi.encodePacked(\n      '{\"name\":\"',name,'\",\"description\":\"',description,'\",', \n      // '\"external_url\":\"https://\",',\n      '\"attributes\":[{\"trait_type\":\"Ticket Type\", \"value\":\"', (milestoneTicketHolders[id] ? \"MILESTONE\" : \"REPORT\"),  '\"}],',\n      '\"owner\":\"', (uint160(ownerOf(id))).toHexString(20),'\",'\n      // '\"image\":\"''\"}'\n    ));\n\n    return string(\n      abi.encodePacked(\n        'data:application/json;base64,',\n        Base64.encode(bytes(tokenJsonString))\n      )\n    );\n  }\n\n}",
  "sourcePath": "C:\\Users\\ze_fe\\OneDrive\\Desktop\\sbic\\sbic2023-rawlbolt\\apps\\blockchain\\contracts\\ReportTickets.sol",
  "compiler": {
    "name": "solc",
    "version": "0.8.17+commit.8df45f5f.Emscripten.clang"
  },
  "schemaVersion": "3.4.15",
  "updatedAt": "2023-09-04T08:38:33.938Z",
  "networkType": "ethereum",
  "devdoc": {
    "kind": "dev",
    "methods": {
      "approve(address,uint256)": {
        "details": "See {IERC721-approve}."
      },
      "balanceOf(address)": {
        "details": "See {IERC721-balanceOf}."
      },
      "getApproved(uint256)": {
        "details": "See {IERC721-getApproved}."
      },
      "isApprovedForAll(address,address)": {
        "details": "See {IERC721-isApprovedForAll}."
      },
      "name()": {
        "details": "See {IERC721Metadata-name}."
      },
      "owner()": {
        "details": "Returns the address of the current owner."
      },
      "ownerOf(uint256)": {
        "details": "See {IERC721-ownerOf}."
      },
      "renounceOwnership()": {
        "details": "Leaves the contract without owner. It will not be possible to call `onlyOwner` functions. Can only be called by the current owner. NOTE: Renouncing ownership will leave the contract without an owner, thereby disabling any functionality that is only available to the owner."
      },
      "safeTransferFrom(address,address,uint256)": {
        "details": "See {IERC721-safeTransferFrom}."
      },
      "safeTransferFrom(address,address,uint256,bytes)": {
        "details": "See {IERC721-safeTransferFrom}."
      },
      "setApprovalForAll(address,bool)": {
        "details": "See {IERC721-setApprovalForAll}."
      },
      "supportsInterface(bytes4)": {
        "details": "See {IERC165-supportsInterface}."
      },
      "symbol()": {
        "details": "See {IERC721Metadata-symbol}."
      },
      "tokenByIndex(uint256)": {
        "details": "See {IERC721Enumerable-tokenByIndex}."
      },
      "tokenOfOwnerByIndex(address,uint256)": {
        "details": "See {IERC721Enumerable-tokenOfOwnerByIndex}."
      },
      "totalSupply()": {
        "details": "See {IERC721Enumerable-totalSupply}."
      },
      "transferFrom(address,address,uint256)": {
        "details": "See {IERC721-transferFrom}."
      },
      "transferOwnership(address)": {
        "details": "Transfers ownership of the contract to a new account (`newOwner`). Can only be called by the current owner."
      },
      "walletOfOwner(address)": {
        "details": "Returns the tokens owned by a given wallet. For use mainly on frontend.",
        "params": {
          "_wallet": "The wallet to get the tokens of. NEEDS ENUMERABLE"
        }
      }
    },
    "version": 1
  },
  "userdoc": {
    "kind": "user",
    "methods": {},
    "version": 1
  }
}